{
  "contractName": "BettingApp",
  "abi": [
    {
      "constant": true,
      "inputs": [],
      "name": "availableAddresses",
      "outputs": [
        {
          "name": "",
          "type": "uint256"
        }
      ],
      "payable": false,
      "stateMutability": "view",
      "type": "function",
      "signature": "0x1fda43f5"
    },
    {
      "constant": true,
      "inputs": [],
      "name": "totalBetUpAmount",
      "outputs": [
        {
          "name": "",
          "type": "uint256"
        }
      ],
      "payable": false,
      "stateMutability": "view",
      "type": "function",
      "signature": "0x4585acd8"
    },
    {
      "constant": true,
      "inputs": [
        {
          "name": "",
          "type": "uint256"
        }
      ],
      "name": "Bets",
      "outputs": [
        {
          "name": "playerAddress",
          "type": "address"
        },
        {
          "name": "betType",
          "type": "uint8"
        },
        {
          "name": "amount",
          "type": "uint256"
        }
      ],
      "payable": false,
      "stateMutability": "view",
      "type": "function",
      "signature": "0x532a5fe8"
    },
    {
      "constant": true,
      "inputs": [],
      "name": "totalBetAmount",
      "outputs": [
        {
          "name": "",
          "type": "uint256"
        }
      ],
      "payable": false,
      "stateMutability": "view",
      "type": "function",
      "signature": "0x613f4594"
    },
    {
      "constant": true,
      "inputs": [],
      "name": "unusedAddressId",
      "outputs": [
        {
          "name": "",
          "type": "uint256"
        }
      ],
      "payable": false,
      "stateMutability": "view",
      "type": "function",
      "signature": "0x7b4c516d"
    },
    {
      "constant": true,
      "inputs": [],
      "name": "totalBetDownAmount",
      "outputs": [
        {
          "name": "",
          "type": "uint256"
        }
      ],
      "payable": false,
      "stateMutability": "view",
      "type": "function",
      "signature": "0xa3fb37d7"
    },
    {
      "constant": true,
      "inputs": [],
      "name": "contractOwner",
      "outputs": [
        {
          "name": "",
          "type": "address"
        }
      ],
      "payable": false,
      "stateMutability": "view",
      "type": "function",
      "signature": "0xce606ee0"
    },
    {
      "constant": true,
      "inputs": [],
      "name": "newAddressId",
      "outputs": [
        {
          "name": "",
          "type": "uint256"
        }
      ],
      "payable": false,
      "stateMutability": "view",
      "type": "function",
      "signature": "0xf60cc2af"
    },
    {
      "inputs": [],
      "payable": false,
      "stateMutability": "nonpayable",
      "type": "constructor",
      "signature": "constructor"
    },
    {
      "constant": false,
      "inputs": [
        {
          "name": "_username",
          "type": "string"
        },
        {
          "name": "_password",
          "type": "string"
        }
      ],
      "name": "registerUser",
      "outputs": [
        {
          "name": "",
          "type": "string"
        }
      ],
      "payable": false,
      "stateMutability": "nonpayable",
      "type": "function",
      "signature": "0x1d2e4afd"
    },
    {
      "constant": true,
      "inputs": [
        {
          "name": "_username",
          "type": "string"
        }
      ],
      "name": "checkIfUserExist",
      "outputs": [
        {
          "name": "",
          "type": "bool"
        }
      ],
      "payable": false,
      "stateMutability": "view",
      "type": "function",
      "signature": "0xd98531f2"
    },
    {
      "constant": false,
      "inputs": [
        {
          "name": "_addressToAsign",
          "type": "address"
        },
        {
          "name": "_password",
          "type": "string"
        }
      ],
      "name": "createNewAddress",
      "outputs": [
        {
          "name": "",
          "type": "string"
        }
      ],
      "payable": false,
      "stateMutability": "nonpayable",
      "type": "function",
      "signature": "0x4f4c66f0"
    },
    {
      "constant": true,
      "inputs": [],
      "name": "didaKralj",
      "outputs": [
        {
          "name": "",
          "type": "string"
        }
      ],
      "payable": false,
      "stateMutability": "pure",
      "type": "function",
      "signature": "0xee0a3318"
    },
    {
      "constant": true,
      "inputs": [],
      "name": "getAvailableAddresses",
      "outputs": [
        {
          "name": "number",
          "type": "uint256"
        }
      ],
      "payable": false,
      "stateMutability": "view",
      "type": "function",
      "signature": "0xc64c8950"
    },
    {
      "constant": false,
      "inputs": [
        {
          "name": "_type",
          "type": "uint8"
        }
      ],
      "name": "purchaseBet",
      "outputs": [],
      "payable": true,
      "stateMutability": "payable",
      "type": "function",
      "signature": "0x8fcfab25"
    },
    {
      "constant": false,
      "inputs": [
        {
          "name": "_winningType",
          "type": "uint8"
        }
      ],
      "name": "payWinnigBets",
      "outputs": [],
      "payable": false,
      "stateMutability": "nonpayable",
      "type": "function",
      "signature": "0x46da4ceb"
    }
  ],
  "bytecode": "0x608060405234801561001057600080fd5b50336000806101000a81548173ffffffffffffffffffffffffffffffffffffffff021916908373ffffffffffffffffffffffffffffffffffffffff160217905550600060028190555060006001819055506000600381905550600060048190555060006005819055506000600681905550611559806100906000396000f3fe6080604052600436106100db576000357c0100000000000000000000000000000000000000000000000000000000900463ffffffff1680631d2e4afd146100e05780631fda43f5146102b85780634585acd8146102e357806346da4ceb1461030e5780634f4c66f01461034c578063532a5fe8146104ad578063613f45941461053c5780637b4c516d146105675780638fcfab2514610592578063a3fb37d7146105c3578063c64c8950146105ee578063ce606ee014610619578063d98531f214610670578063ee0a331814610750578063f60cc2af146107e0575b600080fd5b3480156100ec57600080fd5b5061023d6004803603604081101561010357600080fd5b810190808035906020019064010000000081111561012057600080fd5b82018360208201111561013257600080fd5b8035906020019184600183028401116401000000008311171561015457600080fd5b91908080601f016020809104026020016040519081016040528093929190818152602001838380828437600081840152601f19601f820116905080830192505050505050509192919290803590602001906401000000008111156101b757600080fd5b8201836020820111156101c957600080fd5b803590602001918460018302840111640100000000831117156101eb57600080fd5b91908080601f016020809104026020016040519081016040528093929190818152602001838380828437600081840152601f19601f82011690508083019250505050505050919291929050505061080b565b6040518080602001828103825283818151815260200191508051906020019080838360005b8381101561027d578082015181840152602081019050610262565b50505050905090810190601f1680156102aa5780820380516001836020036101000a031916815260200191505b509250505060405180910390f35b3480156102c457600080fd5b506102cd610c5b565b6040518082815260200191505060405180910390f35b3480156102ef57600080fd5b506102f8610c61565b6040518082815260200191505060405180910390f35b34801561031a57600080fd5b5061034a6004803603602081101561033157600080fd5b81019080803560ff169060200190929190505050610c67565b005b34801561035857600080fd5b506104326004803603604081101561036f57600080fd5b81019080803573ffffffffffffffffffffffffffffffffffffffff169060200190929190803590602001906401000000008111156103ac57600080fd5b8201836020820111156103be57600080fd5b803590602001918460018302840111640100000000831117156103e057600080fd5b91908080601f016020809104026020016040519081016040528093929190818152602001838380828437600081840152601f19601f820116905080830192505050505050509192919290505050610f26565b6040518080602001828103825283818151815260200191508051906020019080838360005b83811015610472578082015181840152602081019050610457565b50505050905090810190601f16801561049f5780820380516001836020036101000a031916815260200191505b509250505060405180910390f35b3480156104b957600080fd5b506104e6600480360360208110156104d057600080fd5b8101908080359060200190929190505050611002565b604051808473ffffffffffffffffffffffffffffffffffffffff1673ffffffffffffffffffffffffffffffffffffffff1681526020018360ff1660ff168152602001828152602001935050505060405180910390f35b34801561054857600080fd5b50610551611068565b6040518082815260200191505060405180910390f35b34801561057357600080fd5b5061057c61106e565b6040518082815260200191505060405180910390f35b6105c1600480360360208110156105a857600080fd5b81019080803560ff169060200190929190505050611074565b005b3480156105cf57600080fd5b506105d8611235565b6040518082815260200191505060405180910390f35b3480156105fa57600080fd5b5061060361123b565b6040518082815260200191505060405180910390f35b34801561062557600080fd5b5061062e611245565b604051808273ffffffffffffffffffffffffffffffffffffffff1673ffffffffffffffffffffffffffffffffffffffff16815260200191505060405180910390f35b34801561067c57600080fd5b506107366004803603602081101561069357600080fd5b81019080803590602001906401000000008111156106b057600080fd5b8201836020820111156106c257600080fd5b803590602001918460018302840111640100000000831117156106e457600080fd5b91908080601f016020809104026020016040519081016040528093929190818152602001838380828437600081840152601f19601f82011690508083019250505050505050919291929050505061126a565b604051808215151515815260200191505060405180910390f35b34801561075c57600080fd5b506107656112ef565b6040518080602001828103825283818151815260200191508051906020019080838360005b838110156107a557808201518184015260208101905061078a565b50505050905090810190601f1680156107d25780820380516001836020036101000a031916815260200191505b509250505060405180910390f35b3480156107ec57600080fd5b506107f561132c565b6040518082815260200191505060405180910390f35b60606007836040518082805190602001908083835b6020831015156108455780518252602082019150602081019050602083039250610820565b6001836020036101000a038019825116818451168082178552505050505050905001915050908152602001604051809103902060030160009054906101000a900460ff161515610c1c5760006002541115610bb857816007846040518082805190602001908083835b6020831015156108d357805182526020820191506020810190506020830392506108ae565b6001836020036101000a0380198251168184511680821785525050505050509050019150509081526020016040518091039020600001908051906020019061091c929190611332565b5060086000600154815260200190815260200160002060000160009054906101000a900473ffffffffffffffffffffffffffffffffffffffff166007846040518082805190602001908083835b60208310151561098e5780518252602082019150602081019050602083039250610969565b6001836020036101000a038019825116818451168082178552505050505050905001915050908152602001604051809103902060010160006101000a81548173ffffffffffffffffffffffffffffffffffffffff021916908373ffffffffffffffffffffffffffffffffffffffff1602179055506008600060015481526020019081526020016000206001016007846040518082805190602001908083835b602083101515610a525780518252602082019150602081019050602083039250610a2d565b6001836020036101000a03801982511681845116808217855250505050505090500191505090815260200160405180910390206002019080546001816001161561010002031660029004610aa79291906113b2565b5060016007846040518082805190602001908083835b602083101515610ae25780518252602082019150602081019050602083039250610abd565b6001836020036101000a038019825116818451168082178552505050505050905001915050908152602001604051809103902060030160006101000a81548160ff02191690831515021790555060016000815480929190600101919050555060026000815480929190600190039190505550606060405190810160405280602581526020017f596f752068617665206265656e207375636365737366756c6c7920726567697381526020017f74657265640000000000000000000000000000000000000000000000000000008152509050610c55565b606060405190810160405280603981526020017f546865726520617265206e6f20617661696c61626c652061646472657373657381526020017f2c20706c656173652074727920616761696e206c617465722e000000000000008152509050610c55565b6040805190810160405280601681526020017f557365726e616d6520616c72656164792065786973740000000000000000000081525090505b92915050565b60025481565b60055481565b60018160ff161480610c7c575060028160ff16145b1515610c8757600080fd5b600080600060018460ff161415610d3f576064600a60055402811515610ca957fe5b0490506000809054906101000a900473ffffffffffffffffffffffffffffffffffffffff1673ffffffffffffffffffffffffffffffffffffffff166108fc829081150290604051600060405180830381858888f19350505050158015610d13573d6000803e3d6000fd5b508060046000828254039250508190555060065461271060045402811515610d3757fe5b049150610de2565b6064600a60065402811515610d5057fe5b0490506000809054906101000a900473ffffffffffffffffffffffffffffffffffffffff1673ffffffffffffffffffffffffffffffffffffffff166108fc829081150290604051600060405180830381858888f19350505050158015610dba573d6000803e3d6000fd5b508060046000828254039250508190555060055461271060045402811515610dde57fe5b0491505b60008090505b600980549050811015610ef7578460ff16600982815481101515610e0857fe5b906000526020600020906002020160000160149054906101000a900460ff1660ff161415610eea5761271083600983815481101515610e4357fe5b90600052602060002090600202016001015402811515610e5f57fe5b049350600981815481101515610e7157fe5b906000526020600020906002020160000160009054906101000a900473ffffffffffffffffffffffffffffffffffffffff1673ffffffffffffffffffffffffffffffffffffffff166108fc859081150290604051600060405180830381858888f19350505050158015610ee8573d6000803e3d6000fd5b505b8080600101915050610de8565b506000600981610f079190611439565b5060006004819055506000600581905550600060068190555050505050565b60608260086000600354815260200190815260200160002060000160006101000a81548173ffffffffffffffffffffffffffffffffffffffff021916908373ffffffffffffffffffffffffffffffffffffffff160217905550816008600060035481526020019081526020016000206001019080519060200190610fab929190611332565b506001600354016003819055506001600254016002819055506040805190810160405280601f81526020017f4e657720616464726573732063726561746564207375636365737366756c7900815250905092915050565b60098181548110151561101157fe5b90600052602060002090600202016000915090508060000160009054906101000a900473ffffffffffffffffffffffffffffffffffffffff16908060000160149054906101000a900460ff16908060010154905083565b60045481565b60015481565b6000809054906101000a900473ffffffffffffffffffffffffffffffffffffffff1673ffffffffffffffffffffffffffffffffffffffff163373ffffffffffffffffffffffffffffffffffffffff16141515156110d057600080fd5b60018160ff1614806110e5575060028160ff16145b15156110f057600080fd5b6110f861146b565b33816000019073ffffffffffffffffffffffffffffffffffffffff16908173ffffffffffffffffffffffffffffffffffffffff168152505081816020019060ff16908160ff1681525050348160400181815250503460046000828254019250508190555060018260ff16141561117d573460066000828254019250508190555061118e565b346005600082825401925050819055505b6009819080600181540180825580915050906001820390600052602060002090600202016000909192909190915060008201518160000160006101000a81548173ffffffffffffffffffffffffffffffffffffffff021916908373ffffffffffffffffffffffffffffffffffffffff16021790555060208201518160000160146101000a81548160ff021916908360ff160217905550604082015181600101555050505050565b60065481565b6000600254905090565b6000809054906101000a900473ffffffffffffffffffffffffffffffffffffffff1681565b60006007826040518082805190602001908083835b6020831015156112a4578051825260208201915060208101905060208303925061127f565b6001836020036101000a038019825116818451168082178552505050505050905001915050908152602001604051809103902060030160009054906101000a900460ff169050919050565b60606040805190810160405280600d81526020017f53747661726e6f206b72616c6a00000000000000000000000000000000000000815250905090565b60035481565b828054600181600116156101000203166002900490600052602060002090601f016020900481019282601f1061137357805160ff19168380011785556113a1565b828001600101855582156113a1579182015b828111156113a0578251825591602001919060010190611385565b5b5090506113ae91906114a6565b5090565b828054600181600116156101000203166002900490600052602060002090601f016020900481019282601f106113eb5780548555611428565b8280016001018555821561142857600052602060002091601f016020900482015b8281111561142757825482559160010191906001019061140c565b5b50905061143591906114a6565b5090565b8154818355818111156114665760020281600202836000526020600020918201910161146591906114cb565b5b505050565b606060405190810160405280600073ffffffffffffffffffffffffffffffffffffffff168152602001600060ff168152602001600081525090565b6114c891905b808211156114c45760008160009055506001016114ac565b5090565b90565b61152a91905b8082111561152657600080820160006101000a81549073ffffffffffffffffffffffffffffffffffffffff02191690556000820160146101000a81549060ff02191690556001820160009055506002016114d1565b5090565b9056fea165627a7a72305820978f457006df5e7c33207ee25a89aba3342a2d8e0e933272e34da43e424d4ae90029",
  "source": "pragma solidity >= 0.5.0 < 0.6.0;\n\ncontract BettingApp {\n    address payable public contractOwner;\n    uint public unusedAddressId;\n    uint public availableAddresses;\n    uint public newAddressId;\n    uint public totalBetAmount;\n    uint public totalBetUpAmount;\n    uint public totalBetDownAmount;\n\n    constructor() public {\n        contractOwner = msg.sender;\n        availableAddresses = 0;\n        unusedAddressId = 0;\n        newAddressId = 0;\n        totalBetAmount = 0;\n        totalBetUpAmount = 0;\n        totalBetDownAmount = 0;\n    }\n    \n    struct User {\n        string password;\n        address assignedAddress;\n        string addressPassword;\n        bool exist;\n    }\n    mapping (string => User) users;\n    \n    struct AddressesPool {\n        address addressToAsign;\n        string password;\n    }\n    mapping (uint => AddressesPool) addresses;\n    \n    function registerUser(string memory _username, string memory _password) public returns (string memory) {\n        if (!users[_username].exist) {\n            if (availableAddresses > 0) {\n                users[_username].password = _password;\n                users[_username].assignedAddress = addresses[unusedAddressId].addressToAsign;\n                users[_username].addressPassword = addresses[unusedAddressId].password;\n                users[_username].exist = true;\n                unusedAddressId++;\n                availableAddresses--;\n                return \"You have been successfully registered\";\n            } else {\n                return \"There are no available addresses, please try again later.\";\n            }\n        } else {\n            return \"Username already exist\";\n        }\n    }\n\n    function checkIfUserExist(string memory _username) public view returns (bool) {\n        return users[_username].exist;\n    }\n    \n    function createNewAddress(address _addressToAsign, string memory _password) public returns (string memory){\n        addresses[newAddressId].addressToAsign = _addressToAsign;\n        addresses[newAddressId].password = _password;\n        newAddressId = newAddressId + 1;\n        availableAddresses = availableAddresses + 1;\n        return \"New address created successfuly\";\n    }\n\n    function didaKralj() public pure returns (string memory){\n        return \"Stvarno kralj\";\n    }\n\n    function getAvailableAddresses() public view returns (uint number) {\n        return availableAddresses;\n    }\n    \n    struct Bet {\n        address payable playerAddress;\n        uint8 betType;\n        uint amount;\n    }\n    \n    Bet[] public Bets;\n    \n    function purchaseBet(uint8 _type) public payable {\n        require(msg.sender != contractOwner);\n        require(_type == 1 || _type == 2);\n        \n        Bet memory newBet;\n        newBet.playerAddress = msg.sender;\n        newBet.betType = _type;\n        newBet.amount = msg.value;\n        \n        totalBetAmount += msg.value;\n        \n        if (_type == 1)\n            totalBetDownAmount += msg.value;\n        else\n            totalBetUpAmount += msg.value;\n\n        Bets.push(newBet);\n    }\n    \n    function payWinnigBets(uint8 _winningType) public {\n        require(_winningType == 1 || _winningType == 2);\n        uint reward;\n        uint rewardCoefficient;\n        uint ethForHouse;\n        \n        if (_winningType == 1) {\n            ethForHouse = totalBetUpAmount * 10 / 100;\n            contractOwner.transfer(ethForHouse);\n            totalBetAmount -= ethForHouse;\n            rewardCoefficient = totalBetAmount * 10000 / totalBetDownAmount;\n        } else {\n            ethForHouse = totalBetDownAmount * 10 / 100;\n            contractOwner.transfer(ethForHouse);\n            totalBetAmount -= ethForHouse;\n            rewardCoefficient = totalBetAmount * 10000 / totalBetUpAmount;\n        }\n  \n        for (uint i = 0; i < Bets.length; i++) {\n            if(Bets[i].betType == _winningType) {\n                reward = Bets[i].amount * rewardCoefficient / 10000;\n                Bets[i].playerAddress.transfer(reward);\n            }\n        }\n        \n        Bets.length = 0;\n        totalBetAmount = 0;\n        totalBetUpAmount = 0;\n        totalBetDownAmount = 0;\n    }\n}",
  "sourcePath": "/home/velja/Desktop/BC-Academy/DAPPS/betting_app/src/truffle/contracts/BettingApp.sol",
  "compiler": {
    "name": "solc",
    "version": "0.5.0+commit.1d4f565a.Emscripten.clang"
  },
  "schemaVersion": "3.0.1",
  "updatedAt": "2019-01-28T17:12:10.104Z",
  "devdoc": {
    "methods": {}
  },
  "userdoc": {
    "methods": {}
  }
}