{
  "contractName": "BettingApp",
  "abi": [
    {
      "constant": true,
      "inputs": [],
      "name": "availableAddresses",
      "outputs": [
        {
          "name": "",
          "type": "uint256"
        }
      ],
      "payable": false,
      "stateMutability": "view",
      "type": "function",
      "signature": "0x1fda43f5"
    },
    {
      "constant": true,
      "inputs": [],
      "name": "totalBetUpAmount",
      "outputs": [
        {
          "name": "",
          "type": "uint256"
        }
      ],
      "payable": false,
      "stateMutability": "view",
      "type": "function",
      "signature": "0x4585acd8"
    },
    {
      "constant": true,
      "inputs": [
        {
          "name": "",
          "type": "uint256"
        }
      ],
      "name": "Bets",
      "outputs": [
        {
          "name": "playerAddress",
          "type": "address"
        },
        {
          "name": "betType",
          "type": "uint8"
        },
        {
          "name": "amount",
          "type": "uint256"
        }
      ],
      "payable": false,
      "stateMutability": "view",
      "type": "function",
      "signature": "0x532a5fe8"
    },
    {
      "constant": true,
      "inputs": [],
      "name": "totalBetAmount",
      "outputs": [
        {
          "name": "",
          "type": "uint256"
        }
      ],
      "payable": false,
      "stateMutability": "view",
      "type": "function",
      "signature": "0x613f4594"
    },
    {
      "constant": true,
      "inputs": [],
      "name": "unusedAddressId",
      "outputs": [
        {
          "name": "",
          "type": "uint256"
        }
      ],
      "payable": false,
      "stateMutability": "view",
      "type": "function",
      "signature": "0x7b4c516d"
    },
    {
      "constant": true,
      "inputs": [],
      "name": "totalBetDownAmount",
      "outputs": [
        {
          "name": "",
          "type": "uint256"
        }
      ],
      "payable": false,
      "stateMutability": "view",
      "type": "function",
      "signature": "0xa3fb37d7"
    },
    {
      "constant": true,
      "inputs": [],
      "name": "contractOwner",
      "outputs": [
        {
          "name": "",
          "type": "address"
        }
      ],
      "payable": false,
      "stateMutability": "view",
      "type": "function",
      "signature": "0xce606ee0"
    },
    {
      "constant": true,
      "inputs": [],
      "name": "newAddressId",
      "outputs": [
        {
          "name": "",
          "type": "uint256"
        }
      ],
      "payable": false,
      "stateMutability": "view",
      "type": "function",
      "signature": "0xf60cc2af"
    },
    {
      "inputs": [],
      "payable": false,
      "stateMutability": "nonpayable",
      "type": "constructor",
      "signature": "constructor"
    },
    {
      "constant": false,
      "inputs": [
        {
          "name": "_username",
          "type": "string"
        },
        {
          "name": "_password",
          "type": "string"
        }
      ],
      "name": "registerUser",
      "outputs": [
        {
          "name": "",
          "type": "bool"
        }
      ],
      "payable": false,
      "stateMutability": "nonpayable",
      "type": "function",
      "signature": "0x1d2e4afd"
    },
    {
      "constant": true,
      "inputs": [
        {
          "name": "_username",
          "type": "string"
        }
      ],
      "name": "checkIfUserExist",
      "outputs": [
        {
          "name": "",
          "type": "bool"
        }
      ],
      "payable": false,
      "stateMutability": "view",
      "type": "function",
      "signature": "0xd98531f2"
    },
    {
      "constant": true,
      "inputs": [
        {
          "name": "_username",
          "type": "string"
        },
        {
          "name": "_password",
          "type": "string"
        }
      ],
      "name": "logIn",
      "outputs": [
        {
          "name": "",
          "type": "bool"
        }
      ],
      "payable": false,
      "stateMutability": "view",
      "type": "function",
      "signature": "0x1cbfc466"
    },
    {
      "constant": true,
      "inputs": [
        {
          "name": "_username",
          "type": "string"
        },
        {
          "name": "_password",
          "type": "string"
        }
      ],
      "name": "getUserLoggedInAddress",
      "outputs": [
        {
          "name": "",
          "type": "address"
        }
      ],
      "payable": false,
      "stateMutability": "view",
      "type": "function",
      "signature": "0x364b59d8"
    },
    {
      "constant": false,
      "inputs": [
        {
          "name": "_addressToAsign",
          "type": "address"
        },
        {
          "name": "_password",
          "type": "string"
        }
      ],
      "name": "createNewAddress",
      "outputs": [
        {
          "name": "",
          "type": "bool"
        }
      ],
      "payable": false,
      "stateMutability": "nonpayable",
      "type": "function",
      "signature": "0x4f4c66f0"
    },
    {
      "constant": true,
      "inputs": [],
      "name": "getAvailableAddresses",
      "outputs": [
        {
          "name": "number",
          "type": "uint256"
        }
      ],
      "payable": false,
      "stateMutability": "view",
      "type": "function",
      "signature": "0xc64c8950"
    },
    {
      "constant": false,
      "inputs": [
        {
          "name": "_type",
          "type": "uint8"
        }
      ],
      "name": "purchaseBet",
      "outputs": [],
      "payable": true,
      "stateMutability": "payable",
      "type": "function",
      "signature": "0x8fcfab25"
    },
    {
      "constant": false,
      "inputs": [
        {
          "name": "_winningType",
          "type": "uint8"
        }
      ],
      "name": "payWinnigBets",
      "outputs": [],
      "payable": false,
      "stateMutability": "nonpayable",
      "type": "function",
      "signature": "0x46da4ceb"
    }
  ],
  "bytecode": "0x608060405234801561001057600080fd5b50336000806101000a81548173ffffffffffffffffffffffffffffffffffffffff021916908373ffffffffffffffffffffffffffffffffffffffff160217905550600060028190555060006001819055506000600381905550600060048190555060006005819055506000600681905550611b48806100906000396000f3fe6080604052600436106100e6576000357c0100000000000000000000000000000000000000000000000000000000900463ffffffff1680631cbfc466146100eb5780631d2e4afd146102625780631fda43f5146103d9578063364b59d8146104045780634585acd8146105a357806346da4ceb146105ce5780634f4c66f01461060c578063532a5fe81461070c578063613f45941461079b5780637b4c516d146107c65780638fcfab25146107f1578063a3fb37d714610822578063c64c89501461084d578063ce606ee014610878578063d98531f2146108cf578063f60cc2af146109af575b600080fd5b3480156100f757600080fd5b506102486004803603604081101561010e57600080fd5b810190808035906020019064010000000081111561012b57600080fd5b82018360208201111561013d57600080fd5b8035906020019184600183028401116401000000008311171561015f57600080fd5b91908080601f016020809104026020016040519081016040528093929190818152602001838380828437600081840152601f19601f820116905080830192505050505050509192919290803590602001906401000000008111156101c257600080fd5b8201836020820111156101d457600080fd5b803590602001918460018302840111640100000000831117156101f657600080fd5b91908080601f016020809104026020016040519081016040528093929190818152602001838380828437600081840152601f19601f8201169050808301925050505050505091929192905050506109da565b604051808215151515815260200191505060405180910390f35b34801561026e57600080fd5b506103bf6004803603604081101561028557600080fd5b81019080803590602001906401000000008111156102a257600080fd5b8201836020820111156102b457600080fd5b803590602001918460018302840111640100000000831117156102d657600080fd5b91908080601f016020809104026020016040519081016040528093929190818152602001838380828437600081840152601f19601f8201169050808301925050505050505091929192908035906020019064010000000081111561033957600080fd5b82018360208201111561034b57600080fd5b8035906020019184600183028401116401000000008311171561036d57600080fd5b91908080601f016020809104026020016040519081016040528093929190818152602001838380828437600081840152601f19601f820116905080830192505050505050509192919290505050610c2a565b604051808215151515815260200191505060405180910390f35b3480156103e557600080fd5b506103ee610f50565b6040518082815260200191505060405180910390f35b34801561041057600080fd5b506105616004803603604081101561042757600080fd5b810190808035906020019064010000000081111561044457600080fd5b82018360208201111561045657600080fd5b8035906020019184600183028401116401000000008311171561047857600080fd5b91908080601f016020809104026020016040519081016040528093929190818152602001838380828437600081840152601f19601f820116905080830192505050505050509192919290803590602001906401000000008111156104db57600080fd5b8201836020820111156104ed57600080fd5b8035906020019184600183028401116401000000008311171561050f57600080fd5b91908080601f016020809104026020016040519081016040528093929190818152602001838380828437600081840152601f19601f820116905080830192505050505050509192919290505050610f56565b604051808273ffffffffffffffffffffffffffffffffffffffff1673ffffffffffffffffffffffffffffffffffffffff16815260200191505060405180910390f35b3480156105af57600080fd5b506105b861122f565b6040518082815260200191505060405180910390f35b3480156105da57600080fd5b5061060a600480360360208110156105f157600080fd5b81019080803560ff169060200190929190505050611235565b005b34801561061857600080fd5b506106f26004803603604081101561062f57600080fd5b81019080803573ffffffffffffffffffffffffffffffffffffffff1690602001909291908035906020019064010000000081111561066c57600080fd5b82018360208201111561067e57600080fd5b803590602001918460018302840111640100000000831117156106a057600080fd5b91908080601f016020809104026020016040519081016040528093929190818152602001838380828437600081840152601f19601f8201169050808301925050505050505091929192905050506114f4565b604051808215151515815260200191505060405180910390f35b34801561071857600080fd5b506107456004803603602081101561072f57600080fd5b8101908080359060200190929190505050611608565b604051808473ffffffffffffffffffffffffffffffffffffffff1673ffffffffffffffffffffffffffffffffffffffff1681526020018360ff1660ff168152602001828152602001935050505060405180910390f35b3480156107a757600080fd5b506107b061166e565b6040518082815260200191505060405180910390f35b3480156107d257600080fd5b506107db611674565b6040518082815260200191505060405180910390f35b6108206004803603602081101561080757600080fd5b81019080803560ff16906020019092919050505061167a565b005b34801561082e57600080fd5b50610837611861565b6040518082815260200191505060405180910390f35b34801561085957600080fd5b50610862611867565b6040518082815260200191505060405180910390f35b34801561088457600080fd5b5061088d611871565b604051808273ffffffffffffffffffffffffffffffffffffffff1673ffffffffffffffffffffffffffffffffffffffff16815260200191505060405180910390f35b3480156108db57600080fd5b50610995600480360360208110156108f257600080fd5b810190808035906020019064010000000081111561090f57600080fd5b82018360208201111561092157600080fd5b8035906020019184600183028401116401000000008311171561094357600080fd5b91908080601f016020809104026020016040519081016040528093929190818152602001838380828437600081840152601f19601f820116905080830192505050505050509192919290505050611896565b604051808215151515815260200191505060405180910390f35b3480156109bb57600080fd5b506109c461191b565b6040518082815260200191505060405180910390f35b600060606007846040518082805190602001908083835b602083101515610a1657805182526020820191506020810190506020830392506109f1565b6001836020036101000a03801982511681845116808217855250505050505090500191505090815260200160405180910390206000016040516020018080602001828103825283818154600181600116156101000203166002900481526020019150805460018160011615610100020316600290048015610ad85780601f10610aad57610100808354040283529160200191610ad8565b820191906000526020600020905b815481529060010190602001808311610abb57829003601f168201915b50509250505060405160208183030381529060405290506060836040516020018080602001828103825283818151815260200191508051906020019080838360005b83811015610b35578082015181840152602081019050610b1a565b50505050905090810190601f168015610b625780820380516001836020036101000a031916815260200191505b509250505060405160208183030381529060405290506007856040518082805190602001908083835b602083101515610bb05780518252602082019150602081019050602083039250610b8b565b6001836020036101000a038019825116818451168082178552505050505050905001915050908152602001604051809103902060030160009054906101000a900460ff168015610c0d575080805190602001208280519060200120145b15610c1d57600192505050610c24565b6000925050505b92915050565b60008060009054906101000a900473ffffffffffffffffffffffffffffffffffffffff1673ffffffffffffffffffffffffffffffffffffffff163373ffffffffffffffffffffffffffffffffffffffff16141515610c8b5760009050610f4a565b816007846040518082805190602001908083835b602083101515610cc45780518252602082019150602081019050602083039250610c9f565b6001836020036101000a03801982511681845116808217855250505050505090500191505090815260200160405180910390206000019080519060200190610d0d929190611921565b5060086000600154815260200190815260200160002060000160009054906101000a900473ffffffffffffffffffffffffffffffffffffffff166007846040518082805190602001908083835b602083101515610d7f5780518252602082019150602081019050602083039250610d5a565b6001836020036101000a038019825116818451168082178552505050505050905001915050908152602001604051809103902060010160006101000a81548173ffffffffffffffffffffffffffffffffffffffff021916908373ffffffffffffffffffffffffffffffffffffffff1602179055506008600060015481526020019081526020016000206001016007846040518082805190602001908083835b602083101515610e435780518252602082019150602081019050602083039250610e1e565b6001836020036101000a03801982511681845116808217855250505050505090500191505090815260200160405180910390206002019080546001816001161561010002031660029004610e989291906119a1565b5060016007846040518082805190602001908083835b602083101515610ed35780518252602082019150602081019050602083039250610eae565b6001836020036101000a038019825116818451168082178552505050505050905001915050908152602001604051809103902060030160006101000a81548160ff02191690831515021790555060016000815480929190600101919050555060026000815480929190600190039190505550600190505b92915050565b60025481565b600060606007846040518082805190602001908083835b602083101515610f925780518252602082019150602081019050602083039250610f6d565b6001836020036101000a038019825116818451168082178552505050505050905001915050908152602001604051809103902060000160405160200180806020018281038252838181546001816001161561010002031660029004815260200191508054600181600116156101000203166002900480156110545780601f1061102957610100808354040283529160200191611054565b820191906000526020600020905b81548152906001019060200180831161103757829003601f168201915b50509250505060405160208183030381529060405290506060836040516020018080602001828103825283818151815260200191508051906020019080838360005b838110156110b1578082015181840152602081019050611096565b50505050905090810190601f1680156110de5780820380516001836020036101000a031916815260200191505b509250505060405160208183030381529060405290506007856040518082805190602001908083835b60208310151561112c5780518252602082019150602081019050602083039250611107565b6001836020036101000a038019825116818451168082178552505050505050905001915050908152602001604051809103902060030160009054906101000a900460ff168015611189575080805190602001208280519060200120145b15611226576007856040518082805190602001908083835b6020831015156111c657805182526020820191506020810190506020830392506111a1565b6001836020036101000a038019825116818451168082178552505050505050905001915050908152602001604051809103902060010160009054906101000a900473ffffffffffffffffffffffffffffffffffffffff1692505050611229565b50505b92915050565b60055481565b60018160ff16148061124a575060028160ff16145b151561125557600080fd5b600080600060018460ff16141561130d576064600a6005540281151561127757fe5b0490506000809054906101000a900473ffffffffffffffffffffffffffffffffffffffff1673ffffffffffffffffffffffffffffffffffffffff166108fc829081150290604051600060405180830381858888f193505050501580156112e1573d6000803e3d6000fd5b50806004600082825403925050819055506006546127106004540281151561130557fe5b0491506113b0565b6064600a6006540281151561131e57fe5b0490506000809054906101000a900473ffffffffffffffffffffffffffffffffffffffff1673ffffffffffffffffffffffffffffffffffffffff166108fc829081150290604051600060405180830381858888f19350505050158015611388573d6000803e3d6000fd5b5080600460008282540392505081905550600554612710600454028115156113ac57fe5b0491505b60008090505b6009805490508110156114c5578460ff166009828154811015156113d657fe5b906000526020600020906002020160000160149054906101000a900460ff1660ff1614156114b8576127108360098381548110151561141157fe5b9060005260206000209060020201600101540281151561142d57fe5b04935060098181548110151561143f57fe5b906000526020600020906002020160000160009054906101000a900473ffffffffffffffffffffffffffffffffffffffff1673ffffffffffffffffffffffffffffffffffffffff166108fc859081150290604051600060405180830381858888f193505050501580156114b6573d6000803e3d6000fd5b505b80806001019150506113b6565b5060006009816114d59190611a28565b5060006004819055506000600581905550600060068190555050505050565b60008060009054906101000a900473ffffffffffffffffffffffffffffffffffffffff1673ffffffffffffffffffffffffffffffffffffffff163373ffffffffffffffffffffffffffffffffffffffff161415156115555760009050611602565b8260086000600354815260200190815260200160002060000160006101000a81548173ffffffffffffffffffffffffffffffffffffffff021916908373ffffffffffffffffffffffffffffffffffffffff1602179055508160086000600354815260200190815260200160002060010190805190602001906115d8929190611921565b50600360008154809291906001019190505550600260008154809291906001019190505550600190505b92915050565b60098181548110151561161757fe5b90600052602060002090600202016000915090508060000160009054906101000a900473ffffffffffffffffffffffffffffffffffffffff16908060000160149054906101000a900460ff16908060010154905083565b60045481565b60015481565b6000809054906101000a900473ffffffffffffffffffffffffffffffffffffffff1673ffffffffffffffffffffffffffffffffffffffff163373ffffffffffffffffffffffffffffffffffffffff16141515156116d657600080fd5b60018160ff1614806116eb575060028160ff16145b15156116f657600080fd5b3373ffffffffffffffffffffffffffffffffffffffff1631341115151561171c57600080fd5b611724611a5a565b33816000019073ffffffffffffffffffffffffffffffffffffffff16908173ffffffffffffffffffffffffffffffffffffffff168152505081816020019060ff16908160ff1681525050348160400181815250503460046000828254019250508190555060018260ff1614156117a957346006600082825401925050819055506117ba565b346005600082825401925050819055505b6009819080600181540180825580915050906001820390600052602060002090600202016000909192909190915060008201518160000160006101000a81548173ffffffffffffffffffffffffffffffffffffffff021916908373ffffffffffffffffffffffffffffffffffffffff16021790555060208201518160000160146101000a81548160ff021916908360ff160217905550604082015181600101555050505050565b60065481565b6000600254905090565b6000809054906101000a900473ffffffffffffffffffffffffffffffffffffffff1681565b60006007826040518082805190602001908083835b6020831015156118d057805182526020820191506020810190506020830392506118ab565b6001836020036101000a038019825116818451168082178552505050505050905001915050908152602001604051809103902060030160009054906101000a900460ff169050919050565b60035481565b828054600181600116156101000203166002900490600052602060002090601f016020900481019282601f1061196257805160ff1916838001178555611990565b82800160010185558215611990579182015b8281111561198f578251825591602001919060010190611974565b5b50905061199d9190611a95565b5090565b828054600181600116156101000203166002900490600052602060002090601f016020900481019282601f106119da5780548555611a17565b82800160010185558215611a1757600052602060002091601f016020900482015b82811115611a165782548255916001019190600101906119fb565b5b509050611a249190611a95565b5090565b815481835581811115611a5557600202816002028360005260206000209182019101611a549190611aba565b5b505050565b606060405190810160405280600073ffffffffffffffffffffffffffffffffffffffff168152602001600060ff168152602001600081525090565b611ab791905b80821115611ab3576000816000905550600101611a9b565b5090565b90565b611b1991905b80821115611b1557600080820160006101000a81549073ffffffffffffffffffffffffffffffffffffffff02191690556000820160146101000a81549060ff0219169055600182016000905550600201611ac0565b5090565b9056fea165627a7a72305820f4594550d1b2c8741447264d598be5395fbe185690de9b17a2f2086df91e9ee90029",
  "source": "pragma solidity >= 0.5.0 < 0.6.0;\n\ncontract BettingApp {\n    address payable public contractOwner;\n    uint public unusedAddressId;\n    uint public availableAddresses;\n    uint public newAddressId;\n    uint public totalBetAmount;\n    uint public totalBetUpAmount;\n    uint public totalBetDownAmount;\n\n    constructor() public {\n        contractOwner = msg.sender;\n        availableAddresses = 0;\n        unusedAddressId = 0;\n        newAddressId = 0;\n        totalBetAmount = 0;\n        totalBetUpAmount = 0;\n        totalBetDownAmount = 0;\n    }\n    \n    struct User {\n        string password;\n        address assignedAddress;\n        string addressPassword;\n        bool exist;\n    }\n    mapping (string => User) users;\n    \n    struct AddressesPool {\n        address addressToAsign;\n        string password;\n    }\n    mapping (uint => AddressesPool) addresses;\n    \n    function registerUser(string memory _username, string memory _password) public returns (bool) {\n        if (msg.sender != contractOwner) return false;\n        users[_username].password = _password;\n        users[_username].assignedAddress = addresses[unusedAddressId].addressToAsign;\n        users[_username].addressPassword = addresses[unusedAddressId].password;\n        users[_username].exist = true;\n        unusedAddressId++;\n        availableAddresses--;\n        return true;\n    }\n\n    function checkIfUserExist(string memory _username) public view returns (bool) {\n        return users[_username].exist;\n    }\n\n    function logIn(string memory _username, string memory _password) public view returns (bool) {\n        bytes memory tempPass = abi.encode(users[_username].password);\n        bytes memory _tempPass = abi.encode(_password);\n        if (users[_username].exist && keccak256(tempPass) == keccak256(_tempPass)) {\n            return true;\n        } else {\n            return false;\n        }\n    }\n\n    function getUserLoggedInAddress(string memory _username, string memory _password) public view returns(address) {\n        bytes memory tempPass = abi.encode(users[_username].password);\n        bytes memory _tempPass = abi.encode(_password);\n        if (users[_username].exist && keccak256(tempPass) == keccak256(_tempPass)) {\n            return users[_username].assignedAddress;\n        }\n    }\n    \n    function createNewAddress(address _addressToAsign, string memory _password) public returns (bool){\n        if (msg.sender != contractOwner) return false;\n        addresses[newAddressId].addressToAsign = _addressToAsign;\n        addresses[newAddressId].password = _password;\n        newAddressId++;\n        availableAddresses++;\n        return true;\n    }\n\n    function getAvailableAddresses() public view returns (uint number) {\n        return availableAddresses;\n    }\n    \n    struct Bet {\n        address payable playerAddress;\n        uint8 betType;\n        uint amount;\n    }\n    \n    Bet[] public Bets;\n    \n    function purchaseBet(uint8 _type) public payable {\n        require(msg.sender != contractOwner);\n        require(_type == 1 || _type == 2);\n        require(msg.value <= msg.sender.balance);\n        \n        Bet memory newBet;\n        newBet.playerAddress = msg.sender;\n        newBet.betType = _type;\n        newBet.amount = msg.value;\n        \n        totalBetAmount += msg.value;\n        \n        if (_type == 1)\n            totalBetDownAmount += msg.value;\n        else\n            totalBetUpAmount += msg.value;\n\n        Bets.push(newBet);\n    }\n    \n    function payWinnigBets(uint8 _winningType) public {\n        require(_winningType == 1 || _winningType == 2);\n        uint reward;\n        uint rewardCoefficient;\n        uint ethForHouse;\n        \n        if (_winningType == 1) {\n            ethForHouse = totalBetUpAmount * 10 / 100;\n            contractOwner.transfer(ethForHouse);\n            totalBetAmount -= ethForHouse;\n            rewardCoefficient = totalBetAmount * 10000 / totalBetDownAmount;\n        } else {\n            ethForHouse = totalBetDownAmount * 10 / 100;\n            contractOwner.transfer(ethForHouse);\n            totalBetAmount -= ethForHouse;\n            rewardCoefficient = totalBetAmount * 10000 / totalBetUpAmount;\n        }\n  \n        for (uint i = 0; i < Bets.length; i++) {\n            if(Bets[i].betType == _winningType) {\n                reward = Bets[i].amount * rewardCoefficient / 10000;\n                Bets[i].playerAddress.transfer(reward);\n            }\n        }\n        \n        Bets.length = 0;\n        totalBetAmount = 0;\n        totalBetUpAmount = 0;\n        totalBetDownAmount = 0;\n    }\n}",
  "sourcePath": "/Users/andrejrakic/DAPPS/BlockchainExchange/src/truffle/contracts/BettingApp.sol",
  "compiler": {
    "name": "solc",
    "version": "0.5.0+commit.1d4f565a.Emscripten.clang"
  },
  "schemaVersion": "3.0.1",
  "updatedAt": "2019-02-03T15:57:06.565Z",
  "devdoc": {
    "methods": {}
  },
  "userdoc": {
    "methods": {}
  }
}