{
  "contractName": "BettingApp",
  "abi": [
    {
      "constant": true,
      "inputs": [],
      "name": "_totalBear",
      "outputs": [
        {
          "name": "",
          "type": "uint256"
        }
      ],
      "payable": false,
      "stateMutability": "view",
      "type": "function",
      "signature": "0x1a096390"
    },
    {
      "constant": true,
      "inputs": [],
      "name": "_amountBear",
      "outputs": [
        {
          "name": "",
          "type": "uint256"
        }
      ],
      "payable": false,
      "stateMutability": "view",
      "type": "function",
      "signature": "0x2a03a068"
    },
    {
      "constant": true,
      "inputs": [],
      "name": "_totalBetAmount",
      "outputs": [
        {
          "name": "",
          "type": "uint256"
        }
      ],
      "payable": false,
      "stateMutability": "view",
      "type": "function",
      "signature": "0x3a7117de"
    },
    {
      "constant": true,
      "inputs": [],
      "name": "_amountBull",
      "outputs": [
        {
          "name": "",
          "type": "uint256"
        }
      ],
      "payable": false,
      "stateMutability": "view",
      "type": "function",
      "signature": "0xbc88135d"
    },
    {
      "constant": true,
      "inputs": [
        {
          "name": "",
          "type": "uint256"
        }
      ],
      "name": "_betsArray",
      "outputs": [
        {
          "name": "",
          "type": "address"
        }
      ],
      "payable": false,
      "stateMutability": "view",
      "type": "function",
      "signature": "0xbd698250"
    },
    {
      "constant": true,
      "inputs": [],
      "name": "_totalBull",
      "outputs": [
        {
          "name": "",
          "type": "uint256"
        }
      ],
      "payable": false,
      "stateMutability": "view",
      "type": "function",
      "signature": "0xbf10390f"
    },
    {
      "constant": true,
      "inputs": [
        {
          "name": "",
          "type": "address"
        }
      ],
      "name": "_betInfo",
      "outputs": [
        {
          "name": "_address",
          "type": "address"
        },
        {
          "name": "_betType",
          "type": "uint8"
        },
        {
          "name": "_amount",
          "type": "uint256"
        }
      ],
      "payable": false,
      "stateMutability": "view",
      "type": "function",
      "signature": "0xc5a6d9b0"
    },
    {
      "inputs": [],
      "payable": false,
      "stateMutability": "nonpayable",
      "type": "constructor",
      "signature": "constructor"
    },
    {
      "constant": false,
      "inputs": [
        {
          "name": "_type",
          "type": "uint8"
        },
        {
          "name": "_betAmount",
          "type": "uint256"
        }
      ],
      "name": "purchaseBet",
      "outputs": [],
      "payable": true,
      "stateMutability": "payable",
      "type": "function",
      "signature": "0xbd95c079"
    },
    {
      "constant": false,
      "inputs": [
        {
          "name": "_winningType",
          "type": "uint8"
        }
      ],
      "name": "payWinnigBets",
      "outputs": [],
      "payable": true,
      "stateMutability": "payable",
      "type": "function",
      "signature": "0x46da4ceb"
    }
  ],
  "bytecode": "0x608060405234801561001057600080fd5b50336000806101000a81548173ffffffffffffffffffffffffffffffffffffffff021916908373ffffffffffffffffffffffffffffffffffffffff1602179055506000600181905550600060038190555060006002819055506000600581905550600060048190555061093c806100886000396000f3fe608060405260043610610099576000357c0100000000000000000000000000000000000000000000000000000000900463ffffffff1680631a0963901461009e5780632a03a068146100c95780633a7117de146100f457806346da4ceb1461011f578063bc88135d14610150578063bd6982501461017b578063bd95c079146101f6578063bf10390f14610231578063c5a6d9b01461025c575b600080fd5b3480156100aa57600080fd5b506100b3610301565b6040518082815260200191505060405180910390f35b3480156100d557600080fd5b506100de610307565b6040518082815260200191505060405180910390f35b34801561010057600080fd5b5061010961030d565b6040518082815260200191505060405180910390f35b61014e6004803603602081101561013557600080fd5b81019080803560ff169060200190929190505050610313565b005b34801561015c57600080fd5b50610165610630565b6040518082815260200191505060405180910390f35b34801561018757600080fd5b506101b46004803603602081101561019e57600080fd5b8101908080359060200190929190505050610636565b604051808273ffffffffffffffffffffffffffffffffffffffff1673ffffffffffffffffffffffffffffffffffffffff16815260200191505060405180910390f35b61022f6004803603604081101561020c57600080fd5b81019080803560ff16906020019092919080359060200190929190505050610674565b005b34801561023d57600080fd5b50610246610862565b6040518082815260200191505060405180910390f35b34801561026857600080fd5b506102ab6004803603602081101561027f57600080fd5b81019080803573ffffffffffffffffffffffffffffffffffffffff169060200190929190505050610868565b604051808473ffffffffffffffffffffffffffffffffffffffff1673ffffffffffffffffffffffffffffffffffffffff1681526020018360ff1660ff168152602001828152602001935050505060405180910390f35b60035481565b60055481565b60015481565b60018160ff161480610328575060028160ff16145b151561033357600080fd5b600080600060018460ff1614156103ec5760006064600a6004540281151561035757fe5b04810190506000809054906101000a900473ffffffffffffffffffffffffffffffffffffffff1673ffffffffffffffffffffffffffffffffffffffff166108fc829081150290604051600060405180830381858888f193505050501580156103c3573d6000803e3d6000fd5b50806001600082825403925050819055506003546001548115156103e357fe5b04915050610490565b60006064600a600554028115156103ff57fe5b04810190506000809054906101000a900473ffffffffffffffffffffffffffffffffffffffff1673ffffffffffffffffffffffffffffffffffffffff166108fc829081150290604051600060405180830381858888f1935050505015801561046b573d6000803e3d6000fd5b508060016000828254039250508190555060025460015481151561048b57fe5b049150505b60008090505b600680549050811015610611576006818154811015156104b257fe5b9060005260206000200160009054906101000a900473ffffffffffffffffffffffffffffffffffffffff1693508460ff16600760008673ffffffffffffffffffffffffffffffffffffffff1673ffffffffffffffffffffffffffffffffffffffff16815260200190815260200160002060000160149054906101000a900460ff1660ff1614156106045781600760008673ffffffffffffffffffffffffffffffffffffffff1673ffffffffffffffffffffffffffffffffffffffff1681526020019081526020016000206001015402925060068181548110151561059257fe5b9060005260206000200160009054906101000a900473ffffffffffffffffffffffffffffffffffffffff1673ffffffffffffffffffffffffffffffffffffffff166108fc849081150290604051600060405180830381858888f19350505050158015610602573d6000803e3d6000fd5b505b8080600101915050610496565b50600060068161062191906108bf565b50600060018190555050505050565b60045481565b60068181548110151561064557fe5b906000526020600020016000915054906101000a900473ffffffffffffffffffffffffffffffffffffffff1681565b6000809054906101000a900473ffffffffffffffffffffffffffffffffffffffff1673ffffffffffffffffffffffffffffffffffffffff163373ffffffffffffffffffffffffffffffffffffffff16141515156106d057600080fd5b60018260ff1614806106e5575060028260ff16145b15156106f057600080fd5b81600760003373ffffffffffffffffffffffffffffffffffffffff1673ffffffffffffffffffffffffffffffffffffffff16815260200190815260200160002060000160146101000a81548160ff021916908360ff16021790555080600760003373ffffffffffffffffffffffffffffffffffffffff1673ffffffffffffffffffffffffffffffffffffffff168152602001908152602001600020600101819055508060016000828254019250508190555060018260ff1614156107d557600360008154809291906001019190505550806005600082825401925050819055506107f8565b600260008154809291906001019190505550806004600082825401925050819055505b60063390806001815401808255809150509060018203906000526020600020016000909192909190916101000a81548173ffffffffffffffffffffffffffffffffffffffff021916908373ffffffffffffffffffffffffffffffffffffffff160217905550505050565b60025481565b60076020528060005260406000206000915090508060000160009054906101000a900473ffffffffffffffffffffffffffffffffffffffff16908060000160149054906101000a900460ff16908060010154905083565b8154818355818111156108e6578183600052602060002091820191016108e591906108eb565b5b505050565b61090d91905b808211156109095760008160009055506001016108f1565b5090565b9056fea165627a7a72305820ccd08678e59dccde6dcb5becf33a7ae395724376a718ce84dc46d3b50172b2ed0029",
  "source": "pragma solidity >= 0.4.22 < 0.6.0;\n\ncontract BettingApp {\n    \n    address payable _houseAddress;\n    uint256 public _totalBetAmount;\n    uint256 public _totalBull;\n    uint256 public _totalBear;\n    uint256 public _amountBull;\n    uint256 public _amountBear;\n    \n    address payable[] public _betsArray;\n    \n    struct Player {\n        string _username;\n        string _password;\n    }\n    \n    struct Bet {\n        address payable _address;\n        uint8 _betType;\n        uint256 _amount;\n    }\n    \n    mapping (address => Bet) public _betInfo;\n    \n    constructor() public {\n        _houseAddress = msg.sender; \n        _totalBetAmount = 0;\n        _totalBear = 0;\n        _totalBull = 0;\n        _amountBear = 0;\n        _amountBull = 0;\n    }\n    \n    \n    function purchaseBet(uint8 _type, uint256 _betAmount) public payable {\n        require(msg.sender != _houseAddress);\n        require(_type==1 || _type==2);\n        \n        _betInfo[msg.sender]._betType = _type;\n        _betInfo[msg.sender]._amount = _betAmount;\n        \n        _totalBetAmount += _betAmount;\n        \n        if(_type == 1) {\n            _totalBear++;\n            _amountBear += _betAmount;\n        }\n        else {\n            _totalBull++; \n            _amountBull += _betAmount;\n        }\n\n        \n        _betsArray.push(msg.sender);\n    }\n    \n    function payWinnigBets(uint8 _winningType) public payable {\n         require(_winningType==1 || _winningType==2);\n         address payable _tempAddress;\n         uint256 _ethForWinners;\n         uint256 _ethCoefficient;\n        \n        //10% for the house\n        if(_winningType == 1) {\n            uint256 _ethForHouse;\n            _ethForHouse += (_amountBull * 10) / 100;\n            address(_houseAddress).transfer(_ethForHouse);\n            _totalBetAmount -= _ethForHouse;\n            _ethCoefficient = _totalBetAmount / _totalBear;\n        } \n        else {\n            uint256 _ethForHouse;\n            _ethForHouse += (_amountBear * 10) / 100;\n            address(_houseAddress).transfer(_ethForHouse);\n            _totalBetAmount -= _ethForHouse;\n             _ethCoefficient = _totalBetAmount / _totalBull;\n        }\n  \n        \n        for(uint256 i=0; i<_betsArray.length; i++) {\n            _tempAddress = _betsArray[i];\n            if(_betInfo[_tempAddress]._betType == _winningType) {\n                _ethForWinners = _betInfo[_tempAddress]._amount * _ethCoefficient;\n                _betsArray[i].transfer(_ethForWinners);\n            }\n        }\n        \n        _betsArray.length = 0;\n        _totalBetAmount = 0;\n        \n    }\n}",
  "sourcePath": "/home/velja/Desktop/BC-Academy/DAPPS/betting_app/src/truffle/contracts/BettingApp.sol",
  "compiler": {
    "name": "solc",
    "version": "0.5.0+commit.1d4f565a.Emscripten.clang"
  },
  "schemaVersion": "3.0.1",
  "updatedAt": "2019-01-24T22:58:32.021Z",
  "devdoc": {
    "methods": {}
  },
  "userdoc": {
    "methods": {}
  }
}