{
  "contractName": "BettingApp",
  "abi": [
    {
      "constant": true,
      "inputs": [],
      "name": "availableAddresses",
      "outputs": [
        {
          "name": "",
          "type": "uint256"
        }
      ],
      "payable": false,
      "stateMutability": "view",
      "type": "function",
      "signature": "0x1fda43f5"
    },
    {
      "constant": true,
      "inputs": [],
      "name": "totalBetUpAmount",
      "outputs": [
        {
          "name": "",
          "type": "uint256"
        }
      ],
      "payable": false,
      "stateMutability": "view",
      "type": "function",
      "signature": "0x4585acd8"
    },
    {
      "constant": true,
      "inputs": [
        {
          "name": "",
          "type": "uint256"
        }
      ],
      "name": "Bets",
      "outputs": [
        {
          "name": "playerAddress",
          "type": "address"
        },
        {
          "name": "betType",
          "type": "uint8"
        },
        {
          "name": "amount",
          "type": "uint256"
        }
      ],
      "payable": false,
      "stateMutability": "view",
      "type": "function",
      "signature": "0x532a5fe8"
    },
    {
      "constant": true,
      "inputs": [],
      "name": "totalBetAmount",
      "outputs": [
        {
          "name": "",
          "type": "uint256"
        }
      ],
      "payable": false,
      "stateMutability": "view",
      "type": "function",
      "signature": "0x613f4594"
    },
    {
      "constant": true,
      "inputs": [],
      "name": "unusedAddressId",
      "outputs": [
        {
          "name": "",
          "type": "uint256"
        }
      ],
      "payable": false,
      "stateMutability": "view",
      "type": "function",
      "signature": "0x7b4c516d"
    },
    {
      "constant": true,
      "inputs": [],
      "name": "totalBetDownAmount",
      "outputs": [
        {
          "name": "",
          "type": "uint256"
        }
      ],
      "payable": false,
      "stateMutability": "view",
      "type": "function",
      "signature": "0xa3fb37d7"
    },
    {
      "constant": true,
      "inputs": [],
      "name": "contractOwner",
      "outputs": [
        {
          "name": "",
          "type": "address"
        }
      ],
      "payable": false,
      "stateMutability": "view",
      "type": "function",
      "signature": "0xce606ee0"
    },
    {
      "constant": true,
      "inputs": [],
      "name": "newAddressId",
      "outputs": [
        {
          "name": "",
          "type": "uint256"
        }
      ],
      "payable": false,
      "stateMutability": "view",
      "type": "function",
      "signature": "0xf60cc2af"
    },
    {
      "inputs": [],
      "payable": false,
      "stateMutability": "nonpayable",
      "type": "constructor",
      "signature": "constructor"
    },
    {
      "constant": false,
      "inputs": [
        {
          "name": "_username",
          "type": "string"
        },
        {
          "name": "_password",
          "type": "string"
        }
      ],
      "name": "registerUser",
      "outputs": [
        {
          "name": "",
          "type": "bool"
        }
      ],
      "payable": false,
      "stateMutability": "nonpayable",
      "type": "function",
      "signature": "0x1d2e4afd"
    },
    {
      "constant": true,
      "inputs": [
        {
          "name": "_username",
          "type": "string"
        }
      ],
      "name": "checkIfUserExist",
      "outputs": [
        {
          "name": "",
          "type": "bool"
        }
      ],
      "payable": false,
      "stateMutability": "view",
      "type": "function",
      "signature": "0xd98531f2"
    },
    {
      "constant": true,
      "inputs": [
        {
          "name": "_username",
          "type": "string"
        },
        {
          "name": "_password",
          "type": "string"
        }
      ],
      "name": "logIn",
      "outputs": [
        {
          "name": "",
          "type": "bool"
        }
      ],
      "payable": false,
      "stateMutability": "view",
      "type": "function",
      "signature": "0x1cbfc466"
    },
    {
      "constant": false,
      "inputs": [
        {
          "name": "_addressToAsign",
          "type": "address"
        },
        {
          "name": "_password",
          "type": "string"
        }
      ],
      "name": "createNewAddress",
      "outputs": [
        {
          "name": "",
          "type": "bool"
        }
      ],
      "payable": false,
      "stateMutability": "nonpayable",
      "type": "function",
      "signature": "0x4f4c66f0"
    },
    {
      "constant": true,
      "inputs": [],
      "name": "getAvailableAddresses",
      "outputs": [
        {
          "name": "number",
          "type": "uint256"
        }
      ],
      "payable": false,
      "stateMutability": "view",
      "type": "function",
      "signature": "0xc64c8950"
    },
    {
      "constant": false,
      "inputs": [
        {
          "name": "_type",
          "type": "uint8"
        }
      ],
      "name": "purchaseBet",
      "outputs": [],
      "payable": true,
      "stateMutability": "payable",
      "type": "function",
      "signature": "0x8fcfab25"
    },
    {
      "constant": false,
      "inputs": [
        {
          "name": "_winningType",
          "type": "uint8"
        }
      ],
      "name": "payWinnigBets",
      "outputs": [],
      "payable": false,
      "stateMutability": "nonpayable",
      "type": "function",
      "signature": "0x46da4ceb"
    }
  ],
  "bytecode": "0x608060405234801561001057600080fd5b50336000806101000a81548173ffffffffffffffffffffffffffffffffffffffff021916908373ffffffffffffffffffffffffffffffffffffffff16021790555060006002819055506000600181905550600060038190555060006004819055506000600581905550600060068190555061169f806100906000396000f3fe6080604052600436106100db576000357c0100000000000000000000000000000000000000000000000000000000900463ffffffff1680631cbfc466146100e05780631d2e4afd146102575780631fda43f5146103ce5780634585acd8146103f957806346da4ceb146104245780634f4c66f014610462578063532a5fe814610562578063613f4594146105f15780637b4c516d1461061c5780638fcfab2514610647578063a3fb37d714610678578063c64c8950146106a3578063ce606ee0146106ce578063d98531f214610725578063f60cc2af14610805575b600080fd5b3480156100ec57600080fd5b5061023d6004803603604081101561010357600080fd5b810190808035906020019064010000000081111561012057600080fd5b82018360208201111561013257600080fd5b8035906020019184600183028401116401000000008311171561015457600080fd5b91908080601f016020809104026020016040519081016040528093929190818152602001838380828437600081840152601f19601f820116905080830192505050505050509192919290803590602001906401000000008111156101b757600080fd5b8201836020820111156101c957600080fd5b803590602001918460018302840111640100000000831117156101eb57600080fd5b91908080601f016020809104026020016040519081016040528093929190818152602001838380828437600081840152601f19601f820116905080830192505050505050509192919290505050610830565b604051808215151515815260200191505060405180910390f35b34801561026357600080fd5b506103b46004803603604081101561027a57600080fd5b810190808035906020019064010000000081111561029757600080fd5b8201836020820111156102a957600080fd5b803590602001918460018302840111640100000000831117156102cb57600080fd5b91908080601f016020809104026020016040519081016040528093929190818152602001838380828437600081840152601f19601f8201169050808301925050505050505091929192908035906020019064010000000081111561032e57600080fd5b82018360208201111561034057600080fd5b8035906020019184600183028401116401000000008311171561036257600080fd5b91908080601f016020809104026020016040519081016040528093929190818152602001838380828437600081840152601f19601f820116905080830192505050505050509192919290505050610a80565b604051808215151515815260200191505060405180910390f35b3480156103da57600080fd5b506103e3610da6565b6040518082815260200191505060405180910390f35b34801561040557600080fd5b5061040e610dac565b6040518082815260200191505060405180910390f35b34801561043057600080fd5b506104606004803603602081101561044757600080fd5b81019080803560ff169060200190929190505050610db2565b005b34801561046e57600080fd5b506105486004803603604081101561048557600080fd5b81019080803573ffffffffffffffffffffffffffffffffffffffff169060200190929190803590602001906401000000008111156104c257600080fd5b8201836020820111156104d457600080fd5b803590602001918460018302840111640100000000831117156104f657600080fd5b91908080601f016020809104026020016040519081016040528093929190818152602001838380828437600081840152601f19601f820116905080830192505050505050509192919290505050611071565b604051808215151515815260200191505060405180910390f35b34801561056e57600080fd5b5061059b6004803603602081101561058557600080fd5b8101908080359060200190929190505050611185565b604051808473ffffffffffffffffffffffffffffffffffffffff1673ffffffffffffffffffffffffffffffffffffffff1681526020018360ff1660ff168152602001828152602001935050505060405180910390f35b3480156105fd57600080fd5b506106066111eb565b6040518082815260200191505060405180910390f35b34801561062857600080fd5b506106316111f1565b6040518082815260200191505060405180910390f35b6106766004803603602081101561065d57600080fd5b81019080803560ff1690602001909291905050506111f7565b005b34801561068457600080fd5b5061068d6113b8565b6040518082815260200191505060405180910390f35b3480156106af57600080fd5b506106b86113be565b6040518082815260200191505060405180910390f35b3480156106da57600080fd5b506106e36113c8565b604051808273ffffffffffffffffffffffffffffffffffffffff1673ffffffffffffffffffffffffffffffffffffffff16815260200191505060405180910390f35b34801561073157600080fd5b506107eb6004803603602081101561074857600080fd5b810190808035906020019064010000000081111561076557600080fd5b82018360208201111561077757600080fd5b8035906020019184600183028401116401000000008311171561079957600080fd5b91908080601f016020809104026020016040519081016040528093929190818152602001838380828437600081840152601f19601f8201169050808301925050505050505091929192905050506113ed565b604051808215151515815260200191505060405180910390f35b34801561081157600080fd5b5061081a611472565b6040518082815260200191505060405180910390f35b600060606007846040518082805190602001908083835b60208310151561086c5780518252602082019150602081019050602083039250610847565b6001836020036101000a0380198251168184511680821785525050505050509050019150509081526020016040518091039020600001604051602001808060200182810382528381815460018160011615610100020316600290048152602001915080546001816001161561010002031660029004801561092e5780601f106109035761010080835404028352916020019161092e565b820191906000526020600020905b81548152906001019060200180831161091157829003601f168201915b50509250505060405160208183030381529060405290506060836040516020018080602001828103825283818151815260200191508051906020019080838360005b8381101561098b578082015181840152602081019050610970565b50505050905090810190601f1680156109b85780820380516001836020036101000a031916815260200191505b509250505060405160208183030381529060405290506007856040518082805190602001908083835b602083101515610a0657805182526020820191506020810190506020830392506109e1565b6001836020036101000a038019825116818451168082178552505050505050905001915050908152602001604051809103902060030160009054906101000a900460ff168015610a63575080805190602001208280519060200120145b15610a7357600192505050610a7a565b6000925050505b92915050565b60008060009054906101000a900473ffffffffffffffffffffffffffffffffffffffff1673ffffffffffffffffffffffffffffffffffffffff163373ffffffffffffffffffffffffffffffffffffffff16141515610ae15760009050610da0565b816007846040518082805190602001908083835b602083101515610b1a5780518252602082019150602081019050602083039250610af5565b6001836020036101000a03801982511681845116808217855250505050505090500191505090815260200160405180910390206000019080519060200190610b63929190611478565b5060086000600154815260200190815260200160002060000160009054906101000a900473ffffffffffffffffffffffffffffffffffffffff166007846040518082805190602001908083835b602083101515610bd55780518252602082019150602081019050602083039250610bb0565b6001836020036101000a038019825116818451168082178552505050505050905001915050908152602001604051809103902060010160006101000a81548173ffffffffffffffffffffffffffffffffffffffff021916908373ffffffffffffffffffffffffffffffffffffffff1602179055506008600060015481526020019081526020016000206001016007846040518082805190602001908083835b602083101515610c995780518252602082019150602081019050602083039250610c74565b6001836020036101000a03801982511681845116808217855250505050505090500191505090815260200160405180910390206002019080546001816001161561010002031660029004610cee9291906114f8565b5060016007846040518082805190602001908083835b602083101515610d295780518252602082019150602081019050602083039250610d04565b6001836020036101000a038019825116818451168082178552505050505050905001915050908152602001604051809103902060030160006101000a81548160ff02191690831515021790555060016000815480929190600101919050555060026000815480929190600190039190505550600190505b92915050565b60025481565b60055481565b60018160ff161480610dc7575060028160ff16145b1515610dd257600080fd5b600080600060018460ff161415610e8a576064600a60055402811515610df457fe5b0490506000809054906101000a900473ffffffffffffffffffffffffffffffffffffffff1673ffffffffffffffffffffffffffffffffffffffff166108fc829081150290604051600060405180830381858888f19350505050158015610e5e573d6000803e3d6000fd5b508060046000828254039250508190555060065461271060045402811515610e8257fe5b049150610f2d565b6064600a60065402811515610e9b57fe5b0490506000809054906101000a900473ffffffffffffffffffffffffffffffffffffffff1673ffffffffffffffffffffffffffffffffffffffff166108fc829081150290604051600060405180830381858888f19350505050158015610f05573d6000803e3d6000fd5b508060046000828254039250508190555060055461271060045402811515610f2957fe5b0491505b60008090505b600980549050811015611042578460ff16600982815481101515610f5357fe5b906000526020600020906002020160000160149054906101000a900460ff1660ff1614156110355761271083600983815481101515610f8e57fe5b90600052602060002090600202016001015402811515610faa57fe5b049350600981815481101515610fbc57fe5b906000526020600020906002020160000160009054906101000a900473ffffffffffffffffffffffffffffffffffffffff1673ffffffffffffffffffffffffffffffffffffffff166108fc859081150290604051600060405180830381858888f19350505050158015611033573d6000803e3d6000fd5b505b8080600101915050610f33565b506000600981611052919061157f565b5060006004819055506000600581905550600060068190555050505050565b60008060009054906101000a900473ffffffffffffffffffffffffffffffffffffffff1673ffffffffffffffffffffffffffffffffffffffff163373ffffffffffffffffffffffffffffffffffffffff161415156110d2576000905061117f565b8260086000600354815260200190815260200160002060000160006101000a81548173ffffffffffffffffffffffffffffffffffffffff021916908373ffffffffffffffffffffffffffffffffffffffff160217905550816008600060035481526020019081526020016000206001019080519060200190611155929190611478565b50600360008154809291906001019190505550600260008154809291906001019190505550600190505b92915050565b60098181548110151561119457fe5b90600052602060002090600202016000915090508060000160009054906101000a900473ffffffffffffffffffffffffffffffffffffffff16908060000160149054906101000a900460ff16908060010154905083565b60045481565b60015481565b6000809054906101000a900473ffffffffffffffffffffffffffffffffffffffff1673ffffffffffffffffffffffffffffffffffffffff163373ffffffffffffffffffffffffffffffffffffffff161415151561125357600080fd5b60018160ff161480611268575060028160ff16145b151561127357600080fd5b61127b6115b1565b33816000019073ffffffffffffffffffffffffffffffffffffffff16908173ffffffffffffffffffffffffffffffffffffffff168152505081816020019060ff16908160ff1681525050348160400181815250503460046000828254019250508190555060018260ff1614156113005734600660008282540192505081905550611311565b346005600082825401925050819055505b6009819080600181540180825580915050906001820390600052602060002090600202016000909192909190915060008201518160000160006101000a81548173ffffffffffffffffffffffffffffffffffffffff021916908373ffffffffffffffffffffffffffffffffffffffff16021790555060208201518160000160146101000a81548160ff021916908360ff160217905550604082015181600101555050505050565b60065481565b6000600254905090565b6000809054906101000a900473ffffffffffffffffffffffffffffffffffffffff1681565b60006007826040518082805190602001908083835b6020831015156114275780518252602082019150602081019050602083039250611402565b6001836020036101000a038019825116818451168082178552505050505050905001915050908152602001604051809103902060030160009054906101000a900460ff169050919050565b60035481565b828054600181600116156101000203166002900490600052602060002090601f016020900481019282601f106114b957805160ff19168380011785556114e7565b828001600101855582156114e7579182015b828111156114e65782518255916020019190600101906114cb565b5b5090506114f491906115ec565b5090565b828054600181600116156101000203166002900490600052602060002090601f016020900481019282601f10611531578054855561156e565b8280016001018555821561156e57600052602060002091601f016020900482015b8281111561156d578254825591600101919060010190611552565b5b50905061157b91906115ec565b5090565b8154818355818111156115ac576002028160020283600052602060002091820191016115ab9190611611565b5b505050565b606060405190810160405280600073ffffffffffffffffffffffffffffffffffffffff168152602001600060ff168152602001600081525090565b61160e91905b8082111561160a5760008160009055506001016115f2565b5090565b90565b61167091905b8082111561166c57600080820160006101000a81549073ffffffffffffffffffffffffffffffffffffffff02191690556000820160146101000a81549060ff0219169055600182016000905550600201611617565b5090565b9056fea165627a7a72305820969a88ac80f325fdb4a83d4ff2f231477e3a77c6d9a9117d8818d3dd401c039b0029",
  "source": "pragma solidity >= 0.5.0 < 0.6.0;\n\ncontract BettingApp {\n    address payable public contractOwner;\n    uint public unusedAddressId;\n    uint public availableAddresses;\n    uint public newAddressId;\n    uint public totalBetAmount;\n    uint public totalBetUpAmount;\n    uint public totalBetDownAmount;\n\n    constructor() public {\n        contractOwner = msg.sender;\n        availableAddresses = 0;\n        unusedAddressId = 0;\n        newAddressId = 0;\n        totalBetAmount = 0;\n        totalBetUpAmount = 0;\n        totalBetDownAmount = 0;\n    }\n    \n    struct User {\n        string password;\n        address assignedAddress;\n        string addressPassword;\n        bool exist;\n    }\n    mapping (string => User) users;\n    \n    struct AddressesPool {\n        address addressToAsign;\n        string password;\n    }\n    mapping (uint => AddressesPool) addresses;\n    \n    function registerUser(string memory _username, string memory _password) public returns (bool) {\n        if (msg.sender != contractOwner) return false;\n        users[_username].password = _password;\n        users[_username].assignedAddress = addresses[unusedAddressId].addressToAsign;\n        users[_username].addressPassword = addresses[unusedAddressId].password;\n        users[_username].exist = true;\n        unusedAddressId++;\n        availableAddresses--;\n        return true;\n    }\n\n    function checkIfUserExist(string memory _username) public view returns (bool) {\n        return users[_username].exist;\n    }\n\n    function logIn(string memory _username, string memory _password) public view returns (bool) {\n        bytes memory tempPass = abi.encode(users[_username].password);\n        bytes memory _tempPass = abi.encode(_password);\n        if (users[_username].exist && keccak256(tempPass) == keccak256(_tempPass)) {\n            return true;\n        } else {\n            return false;\n        }\n    }\n    \n    function createNewAddress(address _addressToAsign, string memory _password) public returns (bool){\n        if (msg.sender != contractOwner) return false;\n        addresses[newAddressId].addressToAsign = _addressToAsign;\n        addresses[newAddressId].password = _password;\n        newAddressId++;\n        availableAddresses++;\n        return true;\n    }\n\n    function getAvailableAddresses() public view returns (uint number) {\n        return availableAddresses;\n    }\n    \n    struct Bet {\n        address payable playerAddress;\n        uint8 betType;\n        uint amount;\n    }\n    \n    Bet[] public Bets;\n    \n    function purchaseBet(uint8 _type) public payable {\n        require(msg.sender != contractOwner);\n        require(_type == 1 || _type == 2);\n        \n        Bet memory newBet;\n        newBet.playerAddress = msg.sender;\n        newBet.betType = _type;\n        newBet.amount = msg.value;\n        \n        totalBetAmount += msg.value;\n        \n        if (_type == 1)\n            totalBetDownAmount += msg.value;\n        else\n            totalBetUpAmount += msg.value;\n\n        Bets.push(newBet);\n    }\n    \n    function payWinnigBets(uint8 _winningType) public {\n        require(_winningType == 1 || _winningType == 2);\n        uint reward;\n        uint rewardCoefficient;\n        uint ethForHouse;\n        \n        if (_winningType == 1) {\n            ethForHouse = totalBetUpAmount * 10 / 100;\n            contractOwner.transfer(ethForHouse);\n            totalBetAmount -= ethForHouse;\n            rewardCoefficient = totalBetAmount * 10000 / totalBetDownAmount;\n        } else {\n            ethForHouse = totalBetDownAmount * 10 / 100;\n            contractOwner.transfer(ethForHouse);\n            totalBetAmount -= ethForHouse;\n            rewardCoefficient = totalBetAmount * 10000 / totalBetUpAmount;\n        }\n  \n        for (uint i = 0; i < Bets.length; i++) {\n            if(Bets[i].betType == _winningType) {\n                reward = Bets[i].amount * rewardCoefficient / 10000;\n                Bets[i].playerAddress.transfer(reward);\n            }\n        }\n        \n        Bets.length = 0;\n        totalBetAmount = 0;\n        totalBetUpAmount = 0;\n        totalBetDownAmount = 0;\n    }\n}",
  "sourcePath": "/home/dida93/DAPPS/BettingApp/src/truffle/contracts/BettingApp.sol",
  "compiler": {
    "name": "solc",
    "version": "0.5.0+commit.1d4f565a.Emscripten.clang"
  },
  "schemaVersion": "3.0.1",
  "updatedAt": "2019-01-31T18:15:25.624Z",
  "devdoc": {
    "methods": {}
  },
  "userdoc": {
    "methods": {}
  }
}