{
  "contractName": "BettingApp",
  "abi": [
    {
      "constant": true,
      "inputs": [],
      "name": "totalBetUpAmount",
      "outputs": [
        {
          "name": "",
          "type": "uint256"
        }
      ],
      "payable": false,
      "stateMutability": "view",
      "type": "function",
      "signature": "0x4585acd8"
    },
    {
      "constant": true,
      "inputs": [
        {
          "name": "",
          "type": "uint256"
        }
      ],
      "name": "Bets",
      "outputs": [
        {
          "name": "playerAddress",
          "type": "address"
        },
        {
          "name": "betType",
          "type": "uint8"
        },
        {
          "name": "amount",
          "type": "uint256"
        }
      ],
      "payable": false,
      "stateMutability": "view",
      "type": "function",
      "signature": "0x532a5fe8"
    },
    {
      "constant": true,
      "inputs": [],
      "name": "totalBetAmount",
      "outputs": [
        {
          "name": "",
          "type": "uint256"
        }
      ],
      "payable": false,
      "stateMutability": "view",
      "type": "function",
      "signature": "0x613f4594"
    },
    {
      "constant": true,
      "inputs": [],
      "name": "totalBetDownAmount",
      "outputs": [
        {
          "name": "",
          "type": "uint256"
        }
      ],
      "payable": false,
      "stateMutability": "view",
      "type": "function",
      "signature": "0xa3fb37d7"
    },
    {
      "constant": true,
      "inputs": [],
      "name": "contractOwner",
      "outputs": [
        {
          "name": "",
          "type": "address"
        }
      ],
      "payable": false,
      "stateMutability": "view",
      "type": "function",
      "signature": "0xce606ee0"
    },
    {
      "inputs": [],
      "payable": false,
      "stateMutability": "nonpayable",
      "type": "constructor",
      "signature": "constructor"
    },
    {
      "constant": false,
      "inputs": [
        {
          "name": "_type",
          "type": "uint8"
        }
      ],
      "name": "purchaseBet",
      "outputs": [],
      "payable": true,
      "stateMutability": "payable",
      "type": "function",
      "signature": "0x8fcfab25"
    },
    {
      "constant": false,
      "inputs": [
        {
          "name": "_winningType",
          "type": "uint8"
        }
      ],
      "name": "payWinnigBets",
      "outputs": [],
      "payable": false,
      "stateMutability": "nonpayable",
      "type": "function",
      "signature": "0x46da4ceb"
    }
  ],
  "bytecode": "0x608060405234801561001057600080fd5b50336000806101000a81548173ffffffffffffffffffffffffffffffffffffffff021916908373ffffffffffffffffffffffffffffffffffffffff160217905550600060018190555060006002819055506000600381905550610876806100786000396000f3fe608060405260043610610083576000357c0100000000000000000000000000000000000000000000000000000000900463ffffffff1680634585acd81461008857806346da4ceb146100b3578063532a5fe8146100f1578063613f4594146101805780638fcfab25146101ab578063a3fb37d7146101dc578063ce606ee014610207575b600080fd5b34801561009457600080fd5b5061009d61025e565b6040518082815260200191505060405180910390f35b3480156100bf57600080fd5b506100ef600480360360208110156100d657600080fd5b81019080803560ff169060200190929190505050610264565b005b3480156100fd57600080fd5b5061012a6004803603602081101561011457600080fd5b8101908080359060200190929190505050610523565b604051808473ffffffffffffffffffffffffffffffffffffffff1673ffffffffffffffffffffffffffffffffffffffff1681526020018360ff1660ff168152602001828152602001935050505060405180910390f35b34801561018c57600080fd5b50610195610589565b6040518082815260200191505060405180910390f35b6101da600480360360208110156101c157600080fd5b81019080803560ff16906020019092919050505061058f565b005b3480156101e857600080fd5b506101f1610750565b6040518082815260200191505060405180910390f35b34801561021357600080fd5b5061021c610756565b604051808273ffffffffffffffffffffffffffffffffffffffff1673ffffffffffffffffffffffffffffffffffffffff16815260200191505060405180910390f35b60025481565b60018160ff161480610279575060028160ff16145b151561028457600080fd5b600080600060018460ff16141561033c576064600a600254028115156102a657fe5b0490506000809054906101000a900473ffffffffffffffffffffffffffffffffffffffff1673ffffffffffffffffffffffffffffffffffffffff166108fc829081150290604051600060405180830381858888f19350505050158015610310573d6000803e3d6000fd5b50806001600082825403925050819055506003546127106001540281151561033457fe5b0491506103df565b6064600a6003540281151561034d57fe5b0490506000809054906101000a900473ffffffffffffffffffffffffffffffffffffffff1673ffffffffffffffffffffffffffffffffffffffff166108fc829081150290604051600060405180830381858888f193505050501580156103b7573d6000803e3d6000fd5b5080600160008282540392505081905550600254612710600154028115156103db57fe5b0491505b60008090505b6004805490508110156104f4578460ff1660048281548110151561040557fe5b906000526020600020906002020160000160149054906101000a900460ff1660ff1614156104e7576127108360048381548110151561044057fe5b9060005260206000209060020201600101540281151561045c57fe5b04935060048181548110151561046e57fe5b906000526020600020906002020160000160009054906101000a900473ffffffffffffffffffffffffffffffffffffffff1673ffffffffffffffffffffffffffffffffffffffff166108fc859081150290604051600060405180830381858888f193505050501580156104e5573d6000803e3d6000fd5b505b80806001019150506103e5565b506000600481610504919061077b565b5060006001819055506000600281905550600060038190555050505050565b60048181548110151561053257fe5b90600052602060002090600202016000915090508060000160009054906101000a900473ffffffffffffffffffffffffffffffffffffffff16908060000160149054906101000a900460ff16908060010154905083565b60015481565b6000809054906101000a900473ffffffffffffffffffffffffffffffffffffffff1673ffffffffffffffffffffffffffffffffffffffff163373ffffffffffffffffffffffffffffffffffffffff16141515156105eb57600080fd5b60018160ff161480610600575060028160ff16145b151561060b57600080fd5b6106136107ad565b33816000019073ffffffffffffffffffffffffffffffffffffffff16908173ffffffffffffffffffffffffffffffffffffffff168152505081816020019060ff16908160ff1681525050348160400181815250503460016000828254019250508190555060018260ff16141561069857346003600082825401925050819055506106a9565b346002600082825401925050819055505b6004819080600181540180825580915050906001820390600052602060002090600202016000909192909190915060008201518160000160006101000a81548173ffffffffffffffffffffffffffffffffffffffff021916908373ffffffffffffffffffffffffffffffffffffffff16021790555060208201518160000160146101000a81548160ff021916908360ff160217905550604082015181600101555050505050565b60035481565b6000809054906101000a900473ffffffffffffffffffffffffffffffffffffffff1681565b8154818355818111156107a8576002028160020283600052602060002091820191016107a791906107e8565b5b505050565b606060405190810160405280600073ffffffffffffffffffffffffffffffffffffffff168152602001600060ff168152602001600081525090565b61084791905b8082111561084357600080820160006101000a81549073ffffffffffffffffffffffffffffffffffffffff02191690556000820160146101000a81549060ff02191690556001820160009055506002016107ee565b5090565b9056fea165627a7a72305820f1ff2311a37c3e6f1b3812ff62adbd9f2f9c7ebeb5c9de9718f9f1e47c3707dd0029",
  "source": "pragma solidity >= 0.5.0 < 0.6.0;\n\ncontract BettingApp {\n    address payable public contractOwner;\n    uint public totalBetAmount;\n    uint public totalBetUpAmount;\n    uint public totalBetDownAmount;\n    \n    struct Player {\n        string username;\n        string password;\n    }\n    \n    struct Bet {\n        address payable playerAddress;\n        uint8 betType;\n        uint amount;\n    }\n    \n    Bet[] public Bets;\n    \n    constructor() public {\n        contractOwner = msg.sender;\n        totalBetAmount = 0;\n        totalBetUpAmount = 0;\n        totalBetDownAmount = 0;\n    }\n    \n    function purchaseBet(uint8 _type) public payable {\n        require(msg.sender != contractOwner);\n        require(_type == 1 || _type == 2);\n        \n        Bet memory newBet;\n        newBet.playerAddress = msg.sender;\n        newBet.betType = _type;\n        newBet.amount = msg.value;\n        \n        totalBetAmount += msg.value;\n        \n        if (_type == 1)\n            totalBetDownAmount += msg.value;\n        else\n            totalBetUpAmount += msg.value;\n\n        Bets.push(newBet);\n    }\n    \n    function payWinnigBets(uint8 _winningType) public {\n        require(_winningType == 1 || _winningType == 2);\n        uint reward;\n        uint rewardCoefficient;\n        uint ethForHouse;\n        \n        if (_winningType == 1) {\n            ethForHouse = totalBetUpAmount * 10 / 100;\n            contractOwner.transfer(ethForHouse);\n            totalBetAmount -= ethForHouse;\n            rewardCoefficient = totalBetAmount * 10000 / totalBetDownAmount;\n        } else {\n            ethForHouse = totalBetDownAmount * 10 / 100;\n            contractOwner.transfer(ethForHouse);\n            totalBetAmount -= ethForHouse;\n            rewardCoefficient = totalBetAmount * 10000 / totalBetUpAmount;\n        }\n  \n        for (uint i = 0; i < Bets.length; i++) {\n            if(Bets[i].betType == _winningType) {\n                reward = Bets[i].amount * rewardCoefficient / 10000;\n                Bets[i].playerAddress.transfer(reward);\n            }\n        }\n        \n        Bets.length = 0;\n        totalBetAmount = 0;\n        totalBetUpAmount = 0;\n        totalBetDownAmount = 0;\n    }\n}",
  "sourcePath": "/home/velja/Desktop/BC-Academy/DAPPS/betting_app/src/truffle/contracts/BettingApp.sol",
  "compiler": {
    "name": "solc",
    "version": "0.5.0+commit.1d4f565a.Emscripten.clang"
  },
  "schemaVersion": "3.0.1",
  "updatedAt": "2019-01-26T12:59:50.263Z",
  "devdoc": {
    "methods": {}
  },
  "userdoc": {
    "methods": {}
  }
}